{
    "_format": "hh-sol-artifact-1",
    "contractName": "Beatchain",
    "sourceName": "contracts/Beatchain.sol",
    "abi": [
        {
            "inputs": [
                {
                    "internalType": "address",
                    "name": "_paymentToken",
                    "type": "address"
                },
                {
                    "internalType": "uint256",
                    "name": "_mintPrice",
                    "type": "uint256"
                },
                {
                    "internalType": "string",
                    "name": "_baseURI",
                    "type": "string"
                }
            ],
            "stateMutability": "nonpayable",
            "type": "constructor"
        },
        {
            "inputs": [
                {
                    "internalType": "address",
                    "name": "sender",
                    "type": "address"
                },
                {
                    "internalType": "uint256",
                    "name": "tokenId",
                    "type": "uint256"
                },
                {
                    "internalType": "address",
                    "name": "owner",
                    "type": "address"
                }
            ],
            "name": "ERC721IncorrectOwner",
            "type": "error"
        },
        {
            "inputs": [
                {
                    "internalType": "address",
                    "name": "operator",
                    "type": "address"
                },
                {
                    "internalType": "uint256",
                    "name": "tokenId",
                    "type": "uint256"
                }
            ],
            "name": "ERC721InsufficientApproval",
            "type": "error"
        },
        {
            "inputs": [
                {
                    "internalType": "address",
                    "name": "approver",
                    "type": "address"
                }
            ],
            "name": "ERC721InvalidApprover",
            "type": "error"
        },
        {
            "inputs": [
                {
                    "internalType": "address",
                    "name": "operator",
                    "type": "address"
                }
            ],
            "name": "ERC721InvalidOperator",
            "type": "error"
        },
        {
            "inputs": [
                {
                    "internalType": "address",
                    "name": "owner",
                    "type": "address"
                }
            ],
            "name": "ERC721InvalidOwner",
            "type": "error"
        },
        {
            "inputs": [
                {
                    "internalType": "address",
                    "name": "receiver",
                    "type": "address"
                }
            ],
            "name": "ERC721InvalidReceiver",
            "type": "error"
        },
        {
            "inputs": [
                {
                    "internalType": "address",
                    "name": "sender",
                    "type": "address"
                }
            ],
            "name": "ERC721InvalidSender",
            "type": "error"
        },
        {
            "inputs": [
                {
                    "internalType": "uint256",
                    "name": "tokenId",
                    "type": "uint256"
                }
            ],
            "name": "ERC721NonexistentToken",
            "type": "error"
        },
        {
            "inputs": [
                {
                    "internalType": "address",
                    "name": "owner",
                    "type": "address"
                }
            ],
            "name": "OwnableInvalidOwner",
            "type": "error"
        },
        {
            "inputs": [
                {
                    "internalType": "address",
                    "name": "account",
                    "type": "address"
                }
            ],
            "name": "OwnableUnauthorizedAccount",
            "type": "error"
        },
        {
            "anonymous": false,
            "inputs": [
                {
                    "indexed": true,
                    "internalType": "address",
                    "name": "owner",
                    "type": "address"
                },
                {
                    "indexed": true,
                    "internalType": "address",
                    "name": "approved",
                    "type": "address"
                },
                {
                    "indexed": true,
                    "internalType": "uint256",
                    "name": "tokenId",
                    "type": "uint256"
                }
            ],
            "name": "Approval",
            "type": "event"
        },
        {
            "anonymous": false,
            "inputs": [
                {
                    "indexed": true,
                    "internalType": "address",
                    "name": "owner",
                    "type": "address"
                },
                {
                    "indexed": true,
                    "internalType": "address",
                    "name": "operator",
                    "type": "address"
                },
                {
                    "indexed": false,
                    "internalType": "bool",
                    "name": "approved",
                    "type": "bool"
                }
            ],
            "name": "ApprovalForAll",
            "type": "event"
        },
        {
            "anonymous": false,
            "inputs": [
                {
                    "indexed": false,
                    "internalType": "uint256",
                    "name": "_fromTokenId",
                    "type": "uint256"
                },
                {
                    "indexed": false,
                    "internalType": "uint256",
                    "name": "_toTokenId",
                    "type": "uint256"
                }
            ],
            "name": "BatchMetadataUpdate",
            "type": "event"
        },
        {
            "anonymous": false,
            "inputs": [
                {
                    "indexed": false,
                    "internalType": "uint256",
                    "name": "_tokenId",
                    "type": "uint256"
                }
            ],
            "name": "MetadataUpdate",
            "type": "event"
        },
        {
            "anonymous": false,
            "inputs": [
                {
                    "indexed": true,
                    "internalType": "address",
                    "name": "previousOwner",
                    "type": "address"
                },
                {
                    "indexed": true,
                    "internalType": "address",
                    "name": "newOwner",
                    "type": "address"
                }
            ],
            "name": "OwnershipTransferred",
            "type": "event"
        },
        {
            "anonymous": false,
            "inputs": [
                {
                    "indexed": true,
                    "internalType": "address",
                    "name": "from",
                    "type": "address"
                },
                {
                    "indexed": true,
                    "internalType": "address",
                    "name": "to",
                    "type": "address"
                },
                {
                    "indexed": true,
                    "internalType": "uint256",
                    "name": "tokenId",
                    "type": "uint256"
                }
            ],
            "name": "Transfer",
            "type": "event"
        },
        {
            "inputs": [
                {
                    "internalType": "address",
                    "name": "to",
                    "type": "address"
                },
                {
                    "internalType": "uint256",
                    "name": "tokenId",
                    "type": "uint256"
                }
            ],
            "name": "approve",
            "outputs": [],
            "stateMutability": "nonpayable",
            "type": "function"
        },
        {
            "inputs": [
                {
                    "internalType": "address",
                    "name": "owner",
                    "type": "address"
                }
            ],
            "name": "balanceOf",
            "outputs": [
                {
                    "internalType": "uint256",
                    "name": "",
                    "type": "uint256"
                }
            ],
            "stateMutability": "view",
            "type": "function"
        },
        {
            "inputs": [],
            "name": "baseURI",
            "outputs": [
                {
                    "internalType": "string",
                    "name": "",
                    "type": "string"
                }
            ],
            "stateMutability": "view",
            "type": "function"
        },
        {
            "inputs": [
                {
                    "internalType": "uint256",
                    "name": "tokenId",
                    "type": "uint256"
                }
            ],
            "name": "getApproved",
            "outputs": [
                {
                    "internalType": "address",
                    "name": "",
                    "type": "address"
                }
            ],
            "stateMutability": "view",
            "type": "function"
        },
        {
            "inputs": [
                {
                    "internalType": "address",
                    "name": "owner",
                    "type": "address"
                },
                {
                    "internalType": "address",
                    "name": "operator",
                    "type": "address"
                }
            ],
            "name": "isApprovedForAll",
            "outputs": [
                {
                    "internalType": "bool",
                    "name": "",
                    "type": "bool"
                }
            ],
            "stateMutability": "view",
            "type": "function"
        },
        {
            "inputs": [],
            "name": "mint",
            "outputs": [
                {
                    "internalType": "uint256",
                    "name": "",
                    "type": "uint256"
                }
            ],
            "stateMutability": "nonpayable",
            "type": "function"
        },
        {
            "inputs": [],
            "name": "mintPrice",
            "outputs": [
                {
                    "internalType": "uint256",
                    "name": "",
                    "type": "uint256"
                }
            ],
            "stateMutability": "view",
            "type": "function"
        },
        {
            "inputs": [],
            "name": "name",
            "outputs": [
                {
                    "internalType": "string",
                    "name": "",
                    "type": "string"
                }
            ],
            "stateMutability": "view",
            "type": "function"
        },
        {
            "inputs": [],
            "name": "owner",
            "outputs": [
                {
                    "internalType": "address",
                    "name": "",
                    "type": "address"
                }
            ],
            "stateMutability": "view",
            "type": "function"
        },
        {
            "inputs": [
                {
                    "internalType": "uint256",
                    "name": "tokenId",
                    "type": "uint256"
                }
            ],
            "name": "ownerOf",
            "outputs": [
                {
                    "internalType": "address",
                    "name": "",
                    "type": "address"
                }
            ],
            "stateMutability": "view",
            "type": "function"
        },
        {
            "inputs": [],
            "name": "paymentToken",
            "outputs": [
                {
                    "internalType": "contract IERC20",
                    "name": "",
                    "type": "address"
                }
            ],
            "stateMutability": "view",
            "type": "function"
        },
        {
            "inputs": [],
            "name": "renounceOwnership",
            "outputs": [],
            "stateMutability": "nonpayable",
            "type": "function"
        },
        {
            "inputs": [
                {
                    "internalType": "address",
                    "name": "from",
                    "type": "address"
                },
                {
                    "internalType": "address",
                    "name": "to",
                    "type": "address"
                },
                {
                    "internalType": "uint256",
                    "name": "tokenId",
                    "type": "uint256"
                }
            ],
            "name": "safeTransferFrom",
            "outputs": [],
            "stateMutability": "nonpayable",
            "type": "function"
        },
        {
            "inputs": [
                {
                    "internalType": "address",
                    "name": "from",
                    "type": "address"
                },
                {
                    "internalType": "address",
                    "name": "to",
                    "type": "address"
                },
                {
                    "internalType": "uint256",
                    "name": "tokenId",
                    "type": "uint256"
                },
                {
                    "internalType": "bytes",
                    "name": "data",
                    "type": "bytes"
                }
            ],
            "name": "safeTransferFrom",
            "outputs": [],
            "stateMutability": "nonpayable",
            "type": "function"
        },
        {
            "inputs": [
                {
                    "internalType": "address",
                    "name": "operator",
                    "type": "address"
                },
                {
                    "internalType": "bool",
                    "name": "approved",
                    "type": "bool"
                }
            ],
            "name": "setApprovalForAll",
            "outputs": [],
            "stateMutability": "nonpayable",
            "type": "function"
        },
        {
            "inputs": [
                {
                    "internalType": "string",
                    "name": "_newBaseURI",
                    "type": "string"
                }
            ],
            "name": "setBaseURI",
            "outputs": [],
            "stateMutability": "nonpayable",
            "type": "function"
        },
        {
            "inputs": [
                {
                    "internalType": "uint256",
                    "name": "_newPrice",
                    "type": "uint256"
                }
            ],
            "name": "setMintPrice",
            "outputs": [],
            "stateMutability": "nonpayable",
            "type": "function"
        },
        {
            "inputs": [
                {
                    "internalType": "bytes4",
                    "name": "interfaceId",
                    "type": "bytes4"
                }
            ],
            "name": "supportsInterface",
            "outputs": [
                {
                    "internalType": "bool",
                    "name": "",
                    "type": "bool"
                }
            ],
            "stateMutability": "view",
            "type": "function"
        },
        {
            "inputs": [],
            "name": "symbol",
            "outputs": [
                {
                    "internalType": "string",
                    "name": "",
                    "type": "string"
                }
            ],
            "stateMutability": "view",
            "type": "function"
        },
        {
            "inputs": [
                {
                    "internalType": "uint256",
                    "name": "tokenId",
                    "type": "uint256"
                }
            ],
            "name": "tokenURI",
            "outputs": [
                {
                    "internalType": "string",
                    "name": "",
                    "type": "string"
                }
            ],
            "stateMutability": "view",
            "type": "function"
        },
        {
            "inputs": [
                {
                    "internalType": "address",
                    "name": "from",
                    "type": "address"
                },
                {
                    "internalType": "address",
                    "name": "to",
                    "type": "address"
                },
                {
                    "internalType": "uint256",
                    "name": "tokenId",
                    "type": "uint256"
                }
            ],
            "name": "transferFrom",
            "outputs": [],
            "stateMutability": "nonpayable",
            "type": "function"
        },
        {
            "inputs": [
                {
                    "internalType": "address",
                    "name": "newOwner",
                    "type": "address"
                }
            ],
            "name": "transferOwnership",
            "outputs": [],
            "stateMutability": "nonpayable",
            "type": "function"
        }
    ],
    "bytecode": "0x608060405234801561001057600080fd5b5060405161357e38038061357e83398181016040528101906100329190610472565b336040518060400160405280600981526020017f42656174636861696e00000000000000000000000000000000000000000000008152506040518060400160405280600481526020017f424541540000000000000000000000000000000000000000000000000000000081525081600090816100ae91906106f8565b5080600190816100be91906106f8565b505050600073ffffffffffffffffffffffffffffffffffffffff168173ffffffffffffffffffffffffffffffffffffffff16036101335760006040517f1e4fbdf700000000000000000000000000000000000000000000000000000000815260040161012a91906107d9565b60405180910390fd5b610142816101a360201b60201c565b5082600960006101000a81548173ffffffffffffffffffffffffffffffffffffffff021916908373ffffffffffffffffffffffffffffffffffffffff16021790555081600a8190555080600b908161019a91906106f8565b505050506107f4565b6000600760009054906101000a900473ffffffffffffffffffffffffffffffffffffffff16905081600760006101000a81548173ffffffffffffffffffffffffffffffffffffffff021916908373ffffffffffffffffffffffffffffffffffffffff1602179055508173ffffffffffffffffffffffffffffffffffffffff168173ffffffffffffffffffffffffffffffffffffffff167f8be0079c531659141344cd1fd0a4f28419497f9722a3daafe3b4186f6b6457e060405160405180910390a35050565b6000604051905090565b600080fd5b600080fd5b600073ffffffffffffffffffffffffffffffffffffffff82169050919050565b60006102a88261027d565b9050919050565b6102b88161029d565b81146102c357600080fd5b50565b6000815190506102d5816102af565b92915050565b6000819050919050565b6102ee816102db565b81146102f957600080fd5b50565b60008151905061030b816102e5565b92915050565b600080fd5b600080fd5b6000601f19601f8301169050919050565b7f4e487b7100000000000000000000000000000000000000000000000000000000600052604160045260246000fd5b6103648261031b565b810181811067ffffffffffffffff821117156103835761038261032c565b5b80604052505050565b6000610396610269565b90506103a2828261035b565b919050565b600067ffffffffffffffff8211156103c2576103c161032c565b5b6103cb8261031b565b9050602081019050919050565b60005b838110156103f65780820151818401526020810190506103db565b60008484015250505050565b6000610415610410846103a7565b61038c565b90508281526020810184848401111561043157610430610316565b5b61043c8482856103d8565b509392505050565b600082601f83011261045957610458610311565b5b8151610469848260208601610402565b91505092915050565b60008060006060848603121561048b5761048a610273565b5b6000610499868287016102c6565b93505060206104aa868287016102fc565b925050604084015167ffffffffffffffff8111156104cb576104ca610278565b5b6104d786828701610444565b9150509250925092565b600081519050919050565b7f4e487b7100000000000000000000000000000000000000000000000000000000600052602260045260246000fd5b6000600282049050600182168061053357607f821691505b602082108103610546576105456104ec565b5b50919050565b60008190508160005260206000209050919050565b60006020601f8301049050919050565b600082821b905092915050565b6000600883026105ae7fffffffffffffffffffffffffffffffffffffffffffffffffffffffffffffffff82610571565b6105b88683610571565b95508019841693508086168417925050509392505050565b6000819050919050565b60006105f56105f06105eb846102db565b6105d0565b6102db565b9050919050565b6000819050919050565b61060f836105da565b61062361061b826105fc565b84845461057e565b825550505050565b600090565b61063861062b565b610643818484610606565b505050565b5b818110156106675761065c600082610630565b600181019050610649565b5050565b601f8211156106ac5761067d8161054c565b61068684610561565b81016020851015610695578190505b6106a96106a185610561565b830182610648565b50505b505050565b600082821c905092915050565b60006106cf600019846008026106b1565b1980831691505092915050565b60006106e883836106be565b9150826002028217905092915050565b610701826104e1565b67ffffffffffffffff81111561071a5761071961032c565b5b610724825461051b565b61072f82828561066b565b600060209050601f8311600181146107625760008415610750578287015190505b61075a85826106dc565b8655506107c2565b601f1984166107708661054c565b60005b8281101561079857848901518255600182019150602085019450602081019050610773565b868310156107b557848901516107b1601f8916826106be565b8355505b6001600288020188555050505b505050505050565b6107d38161029d565b82525050565b60006020820190506107ee60008301846107ca565b92915050565b612d7b806108036000396000f3fe608060405234801561001057600080fd5b50600436106101425760003560e01c80636c0360eb116100b8578063a22cb4651161007c578063a22cb46514610353578063b88d4fde1461036f578063c87b56dd1461038b578063e985e9c5146103bb578063f2fde38b146103eb578063f4a0a5281461040757610142565b80636c0360eb146102bf57806370a08231146102dd578063715018a61461030d5780638da5cb5b1461031757806395d89b411461033557610142565b806323b872dd1161010a57806323b872dd146101ff5780633013ce291461021b57806342842e0e1461023957806355f804b3146102555780636352211e146102715780636817c76c146102a157610142565b806301ffc9a71461014757806306fdde0314610177578063081812fc14610195578063095ea7b3146101c55780631249c58b146101e1575b600080fd5b610161600480360381019061015c9190611ea5565b610423565b60405161016e9190611eed565b60405180910390f35b61017f610484565b60405161018c9190611f98565b60405180910390f35b6101af60048036038101906101aa9190611ff0565b610516565b6040516101bc919061205e565b60405180910390f35b6101df60048036038101906101da91906120a5565b610532565b005b6101e9610548565b6040516101f691906120f4565b60405180910390f35b6102196004803603810190610214919061210f565b610697565b005b610223610799565b60405161023091906121c1565b60405180910390f35b610253600480360381019061024e919061210f565b6107bf565b005b61026f600480360381019061026a9190612311565b6107df565b005b61028b60048036038101906102869190611ff0565b6107fa565b604051610298919061205e565b60405180910390f35b6102a961080c565b6040516102b691906120f4565b60405180910390f35b6102c7610812565b6040516102d49190611f98565b60405180910390f35b6102f760048036038101906102f2919061235a565b6108a0565b60405161030491906120f4565b60405180910390f35b61031561095a565b005b61031f61096e565b60405161032c919061205e565b60405180910390f35b61033d610998565b60405161034a9190611f98565b60405180910390f35b61036d600480360381019061036891906123b3565b610a2a565b005b61038960048036038101906103849190612494565b610a40565b005b6103a560048036038101906103a09190611ff0565b610a65565b6040516103b29190611f98565b60405180910390f35b6103d560048036038101906103d09190612517565b610b78565b6040516103e29190611eed565b60405180910390f35b6104056004803603810190610400919061235a565b610c0c565b005b610421600480360381019061041c9190611ff0565b610c92565b005b6000634906490660e01b7bffffffffffffffffffffffffffffffffffffffffffffffffffffffff1916827bffffffffffffffffffffffffffffffffffffffffffffffffffffffff1916148061047d575061047c82610ca4565b5b9050919050565b60606000805461049390612586565b80601f01602080910402602001604051908101604052809291908181526020018280546104bf90612586565b801561050c5780601f106104e15761010080835404028352916020019161050c565b820191906000526020600020905b8154815290600101906020018083116104ef57829003601f168201915b5050505050905090565b600061052182610d86565b5061052b82610e0e565b9050919050565b610544828261053f610e4b565b610e53565b5050565b6000600960009054906101000a900473ffffffffffffffffffffffffffffffffffffffff1673ffffffffffffffffffffffffffffffffffffffff166323b872dd3330600a546040518463ffffffff1660e01b81526004016105ab939291906125b7565b6020604051808303816000875af11580156105ca573d6000803e3d6000fd5b505050506040513d601f19601f820116820180604052508101906105ee9190612603565b61062d576040517f08c379a00000000000000000000000000000000000000000000000000000000081526004016106249061267c565b60405180910390fd5b60086000815480929190610640906126cb565b9190505550600060085490506000600b61065983610e65565b60405160200161066a929190612833565b60405160208183030381529060405290506106853383610fcb565b61068f82826110c4565b819250505090565b600073ffffffffffffffffffffffffffffffffffffffff168273ffffffffffffffffffffffffffffffffffffffff16036107095760006040517f64a0ae92000000000000000000000000000000000000000000000000000000008152600401610700919061205e565b60405180910390fd5b600061071d8383610718610e4b565b611120565b90508373ffffffffffffffffffffffffffffffffffffffff168173ffffffffffffffffffffffffffffffffffffffff1614610793578382826040517f64283d7b00000000000000000000000000000000000000000000000000000000815260040161078a93929190612862565b60405180910390fd5b50505050565b600960009054906101000a900473ffffffffffffffffffffffffffffffffffffffff1681565b6107da83838360405180602001604052806000815250610a40565b505050565b6107e761133a565b80600b90816107f69190612a26565b5050565b600061080582610d86565b9050919050565b600a5481565b600b805461081f90612586565b80601f016020809104026020016040519081016040528092919081815260200182805461084b90612586565b80156108985780601f1061086d57610100808354040283529160200191610898565b820191906000526020600020905b81548152906001019060200180831161087b57829003601f168201915b505050505081565b60008073ffffffffffffffffffffffffffffffffffffffff168273ffffffffffffffffffffffffffffffffffffffff16036109135760006040517f89c62b6400000000000000000000000000000000000000000000000000000000815260040161090a919061205e565b60405180910390fd5b600360008373ffffffffffffffffffffffffffffffffffffffff1673ffffffffffffffffffffffffffffffffffffffff168152602001908152602001600020549050919050565b61096261133a565b61096c60006113c1565b565b6000600760009054906101000a900473ffffffffffffffffffffffffffffffffffffffff16905090565b6060600180546109a790612586565b80601f01602080910402602001604051908101604052809291908181526020018280546109d390612586565b8015610a205780601f106109f557610100808354040283529160200191610a20565b820191906000526020600020905b815481529060010190602001808311610a0357829003601f168201915b5050505050905090565b610a3c610a35610e4b565b8383611487565b5050565b610a4b848484610697565b610a5f610a56610e4b565b858585856115f6565b50505050565b6060610a7082610d86565b506000600660008481526020019081526020016000208054610a9190612586565b80601f0160208091040260200160405190810160405280929190818152602001828054610abd90612586565b8015610b0a5780601f10610adf57610100808354040283529160200191610b0a565b820191906000526020600020905b815481529060010190602001808311610aed57829003601f168201915b505050505090506000610b1b6117a7565b90506000815103610b30578192505050610b73565b600082511115610b65578082604051602001610b4d929190612af8565b60405160208183030381529060405292505050610b73565b610b6e846117be565b925050505b919050565b6000600560008473ffffffffffffffffffffffffffffffffffffffff1673ffffffffffffffffffffffffffffffffffffffff16815260200190815260200160002060008373ffffffffffffffffffffffffffffffffffffffff1673ffffffffffffffffffffffffffffffffffffffff16815260200190815260200160002060009054906101000a900460ff16905092915050565b610c1461133a565b600073ffffffffffffffffffffffffffffffffffffffff168173ffffffffffffffffffffffffffffffffffffffff1603610c865760006040517f1e4fbdf7000000000000000000000000000000000000000000000000000000008152600401610c7d919061205e565b60405180910390fd5b610c8f816113c1565b50565b610c9a61133a565b80600a8190555050565b60007f80ac58cd000000000000000000000000000000000000000000000000000000007bffffffffffffffffffffffffffffffffffffffffffffffffffffffff1916827bffffffffffffffffffffffffffffffffffffffffffffffffffffffff19161480610d6f57507f5b5e139f000000000000000000000000000000000000000000000000000000007bffffffffffffffffffffffffffffffffffffffffffffffffffffffff1916827bffffffffffffffffffffffffffffffffffffffffffffffffffffffff1916145b80610d7f5750610d7e82611827565b5b9050919050565b600080610d9283611891565b9050600073ffffffffffffffffffffffffffffffffffffffff168173ffffffffffffffffffffffffffffffffffffffff1603610e0557826040517f7e273289000000000000000000000000000000000000000000000000000000008152600401610dfc91906120f4565b60405180910390fd5b80915050919050565b60006004600083815260200190815260200160002060009054906101000a900473ffffffffffffffffffffffffffffffffffffffff169050919050565b600033905090565b610e6083838360016118ce565b505050565b606060008203610eac576040518060400160405280600181526020017f30000000000000000000000000000000000000000000000000000000000000008152509050610fc6565b600082905060005b60008214610ede578080610ec7906126cb565b915050600a82610ed79190612b4b565b9150610eb4565b60008167ffffffffffffffff811115610efa57610ef96121e6565b5b6040519080825280601f01601f191660200182016040528015610f2c5781602001600182028036833780820191505090505b50905060008290508593505b60008414610fbe57600a84610f4d9190612b7c565b6030610f599190612bad565b60f81b8282610f6790612be1565b92508281518110610f7b57610f7a612c0a565b5b60200101907effffffffffffffffffffffffffffffffffffffffffffffffffffffffffffff1916908160001a905350600a84610fb79190612b4b565b9350610f38565b819450505050505b919050565b600073ffffffffffffffffffffffffffffffffffffffff168273ffffffffffffffffffffffffffffffffffffffff160361103d5760006040517f64a0ae92000000000000000000000000000000000000000000000000000000008152600401611034919061205e565b60405180910390fd5b600061104b83836000611120565b9050600073ffffffffffffffffffffffffffffffffffffffff168173ffffffffffffffffffffffffffffffffffffffff16146110bf5760006040517f73c6ac6e0000000000000000000000000000000000000000000000000000000081526004016110b6919061205e565b60405180910390fd5b505050565b806006600084815260200190815260200160002090816110e49190612a26565b507ff8e1a15aba9398e019f0b49df1a4fde98ee17ae345cb5f6b5e2c27f5033e8ce78260405161111491906120f4565b60405180910390a15050565b60008061112c84611891565b9050600073ffffffffffffffffffffffffffffffffffffffff168373ffffffffffffffffffffffffffffffffffffffff161461116e5761116d818486611a93565b5b600073ffffffffffffffffffffffffffffffffffffffff168173ffffffffffffffffffffffffffffffffffffffff16146111ff576111b06000856000806118ce565b6001600360008373ffffffffffffffffffffffffffffffffffffffff1673ffffffffffffffffffffffffffffffffffffffff168152602001908152602001600020600082825403925050819055505b600073ffffffffffffffffffffffffffffffffffffffff168573ffffffffffffffffffffffffffffffffffffffff1614611282576001600360008773ffffffffffffffffffffffffffffffffffffffff1673ffffffffffffffffffffffffffffffffffffffff168152602001908152602001600020600082825401925050819055505b846002600086815260200190815260200160002060006101000a81548173ffffffffffffffffffffffffffffffffffffffff021916908373ffffffffffffffffffffffffffffffffffffffff160217905550838573ffffffffffffffffffffffffffffffffffffffff168273ffffffffffffffffffffffffffffffffffffffff167fddf252ad1be2c89b69c2b068fc378daa952ba7f163c4a11628f55a4df523b3ef60405160405180910390a4809150509392505050565b611342610e4b565b73ffffffffffffffffffffffffffffffffffffffff1661136061096e565b73ffffffffffffffffffffffffffffffffffffffff16146113bf57611383610e4b565b6040517f118cdaa70000000000000000000000000000000000000000000000000000000081526004016113b6919061205e565b60405180910390fd5b565b6000600760009054906101000a900473ffffffffffffffffffffffffffffffffffffffff16905081600760006101000a81548173ffffffffffffffffffffffffffffffffffffffff021916908373ffffffffffffffffffffffffffffffffffffffff1602179055508173ffffffffffffffffffffffffffffffffffffffff168173ffffffffffffffffffffffffffffffffffffffff167f8be0079c531659141344cd1fd0a4f28419497f9722a3daafe3b4186f6b6457e060405160405180910390a35050565b600073ffffffffffffffffffffffffffffffffffffffff168273ffffffffffffffffffffffffffffffffffffffff16036114f857816040517f5b08ba180000000000000000000000000000000000000000000000000000000081526004016114ef919061205e565b60405180910390fd5b80600560008573ffffffffffffffffffffffffffffffffffffffff1673ffffffffffffffffffffffffffffffffffffffff16815260200190815260200160002060008473ffffffffffffffffffffffffffffffffffffffff1673ffffffffffffffffffffffffffffffffffffffff16815260200190815260200160002060006101000a81548160ff0219169083151502179055508173ffffffffffffffffffffffffffffffffffffffff168373ffffffffffffffffffffffffffffffffffffffff167f17307eab39ab6107e8899845ad3d59bd9653f200f220920489ca2b5937696c31836040516115e99190611eed565b60405180910390a3505050565b60008373ffffffffffffffffffffffffffffffffffffffff163b11156117a0578273ffffffffffffffffffffffffffffffffffffffff1663150b7a02868685856040518563ffffffff1660e01b81526004016116559493929190612c8e565b6020604051808303816000875af192505050801561169157506040513d601f19601f8201168201806040525081019061168e9190612cef565b60015b611715573d80600081146116c1576040519150601f19603f3d011682016040523d82523d6000602084013e6116c6565b606091505b50600081510361170d57836040517f64a0ae92000000000000000000000000000000000000000000000000000000008152600401611704919061205e565b60405180910390fd5b805181602001fd5b63150b7a0260e01b7bffffffffffffffffffffffffffffffffffffffffffffffffffffffff1916817bffffffffffffffffffffffffffffffffffffffffffffffffffffffff19161461179e57836040517f64a0ae92000000000000000000000000000000000000000000000000000000008152600401611795919061205e565b60405180910390fd5b505b5050505050565b606060405180602001604052806000815250905090565b60606117c982610d86565b5060006117d46117a7565b905060008151116117f4576040518060200160405280600081525061181f565b806117fe84611b57565b60405160200161180f929190612af8565b6040516020818303038152906040525b915050919050565b60007f01ffc9a7000000000000000000000000000000000000000000000000000000007bffffffffffffffffffffffffffffffffffffffffffffffffffffffff1916827bffffffffffffffffffffffffffffffffffffffffffffffffffffffff1916149050919050565b60006002600083815260200190815260200160002060009054906101000a900473ffffffffffffffffffffffffffffffffffffffff169050919050565b80806119075750600073ffffffffffffffffffffffffffffffffffffffff168273ffffffffffffffffffffffffffffffffffffffff1614155b15611a3b57600061191784610d86565b9050600073ffffffffffffffffffffffffffffffffffffffff168373ffffffffffffffffffffffffffffffffffffffff161415801561198257508273ffffffffffffffffffffffffffffffffffffffff168173ffffffffffffffffffffffffffffffffffffffff1614155b801561199557506119938184610b78565b155b156119d757826040517fa9fbf51f0000000000000000000000000000000000000000000000000000000081526004016119ce919061205e565b60405180910390fd5b8115611a3957838573ffffffffffffffffffffffffffffffffffffffff168273ffffffffffffffffffffffffffffffffffffffff167f8c5be1e5ebec7d5bd14f71427d1e84f3dd0314c0f7b2291e5b200ac8c7c3b92560405160405180910390a45b505b836004600085815260200190815260200160002060006101000a81548173ffffffffffffffffffffffffffffffffffffffff021916908373ffffffffffffffffffffffffffffffffffffffff16021790555050505050565b611a9e838383611c25565b611b5257600073ffffffffffffffffffffffffffffffffffffffff168373ffffffffffffffffffffffffffffffffffffffff1603611b1357806040517f7e273289000000000000000000000000000000000000000000000000000000008152600401611b0a91906120f4565b60405180910390fd5b81816040517f177e802f000000000000000000000000000000000000000000000000000000008152600401611b49929190612d1c565b60405180910390fd5b505050565b606060006001611b6684611ce6565b01905060008167ffffffffffffffff811115611b8557611b846121e6565b5b6040519080825280601f01601f191660200182016040528015611bb75781602001600182028036833780820191505090505b509050600082602001820190505b600115611c1a578080600190039150507f3031323334353637383961626364656600000000000000000000000000000000600a86061a8153600a8581611c0e57611c0d612b1c565b5b04945060008503611bc5575b819350505050919050565b60008073ffffffffffffffffffffffffffffffffffffffff168373ffffffffffffffffffffffffffffffffffffffff1614158015611cdd57508273ffffffffffffffffffffffffffffffffffffffff168473ffffffffffffffffffffffffffffffffffffffff161480611c9e5750611c9d8484610b78565b5b80611cdc57508273ffffffffffffffffffffffffffffffffffffffff16611cc483610e0e565b73ffffffffffffffffffffffffffffffffffffffff16145b5b90509392505050565b600080600090507a184f03e93ff9f4daa797ed6e38ed64bf6a1f0100000000000000008310611d44577a184f03e93ff9f4daa797ed6e38ed64bf6a1f0100000000000000008381611d3a57611d39612b1c565b5b0492506040810190505b6d04ee2d6d415b85acef81000000008310611d81576d04ee2d6d415b85acef81000000008381611d7757611d76612b1c565b5b0492506020810190505b662386f26fc100008310611db057662386f26fc100008381611da657611da5612b1c565b5b0492506010810190505b6305f5e1008310611dd9576305f5e1008381611dcf57611dce612b1c565b5b0492506008810190505b6127108310611dfe576127108381611df457611df3612b1c565b5b0492506004810190505b60648310611e215760648381611e1757611e16612b1c565b5b0492506002810190505b600a8310611e30576001810190505b80915050919050565b6000604051905090565b600080fd5b600080fd5b60007fffffffff0000000000000000000000000000000000000000000000000000000082169050919050565b611e8281611e4d565b8114611e8d57600080fd5b50565b600081359050611e9f81611e79565b92915050565b600060208284031215611ebb57611eba611e43565b5b6000611ec984828501611e90565b91505092915050565b60008115159050919050565b611ee781611ed2565b82525050565b6000602082019050611f026000830184611ede565b92915050565b600081519050919050565b600082825260208201905092915050565b60005b83811015611f42578082015181840152602081019050611f27565b60008484015250505050565b6000601f19601f8301169050919050565b6000611f6a82611f08565b611f748185611f13565b9350611f84818560208601611f24565b611f8d81611f4e565b840191505092915050565b60006020820190508181036000830152611fb28184611f5f565b905092915050565b6000819050919050565b611fcd81611fba565b8114611fd857600080fd5b50565b600081359050611fea81611fc4565b92915050565b60006020828403121561200657612005611e43565b5b600061201484828501611fdb565b91505092915050565b600073ffffffffffffffffffffffffffffffffffffffff82169050919050565b60006120488261201d565b9050919050565b6120588161203d565b82525050565b6000602082019050612073600083018461204f565b92915050565b6120828161203d565b811461208d57600080fd5b50565b60008135905061209f81612079565b92915050565b600080604083850312156120bc576120bb611e43565b5b60006120ca85828601612090565b92505060206120db85828601611fdb565b9150509250929050565b6120ee81611fba565b82525050565b600060208201905061210960008301846120e5565b92915050565b60008060006060848603121561212857612127611e43565b5b600061213686828701612090565b935050602061214786828701612090565b925050604061215886828701611fdb565b9150509250925092565b6000819050919050565b600061218761218261217d8461201d565b612162565b61201d565b9050919050565b60006121998261216c565b9050919050565b60006121ab8261218e565b9050919050565b6121bb816121a0565b82525050565b60006020820190506121d660008301846121b2565b92915050565b600080fd5b600080fd5b7f4e487b7100000000000000000000000000000000000000000000000000000000600052604160045260246000fd5b61221e82611f4e565b810181811067ffffffffffffffff8211171561223d5761223c6121e6565b5b80604052505050565b6000612250611e39565b905061225c8282612215565b919050565b600067ffffffffffffffff82111561227c5761227b6121e6565b5b61228582611f4e565b9050602081019050919050565b82818337600083830152505050565b60006122b46122af84612261565b612246565b9050828152602081018484840111156122d0576122cf6121e1565b5b6122db848285612292565b509392505050565b600082601f8301126122f8576122f76121dc565b5b81356123088482602086016122a1565b91505092915050565b60006020828403121561232757612326611e43565b5b600082013567ffffffffffffffff81111561234557612344611e48565b5b612351848285016122e3565b91505092915050565b6000602082840312156123705761236f611e43565b5b600061237e84828501612090565b91505092915050565b61239081611ed2565b811461239b57600080fd5b50565b6000813590506123ad81612387565b92915050565b600080604083850312156123ca576123c9611e43565b5b60006123d885828601612090565b92505060206123e98582860161239e565b9150509250929050565b600067ffffffffffffffff82111561240e5761240d6121e6565b5b61241782611f4e565b9050602081019050919050565b6000612437612432846123f3565b612246565b905082815260208101848484011115612453576124526121e1565b5b61245e848285612292565b509392505050565b600082601f83011261247b5761247a6121dc565b5b813561248b848260208601612424565b91505092915050565b600080600080608085870312156124ae576124ad611e43565b5b60006124bc87828801612090565b94505060206124cd87828801612090565b93505060406124de87828801611fdb565b925050606085013567ffffffffffffffff8111156124ff576124fe611e48565b5b61250b87828801612466565b91505092959194509250565b6000806040838503121561252e5761252d611e43565b5b600061253c85828601612090565b925050602061254d85828601612090565b9150509250929050565b7f4e487b7100000000000000000000000000000000000000000000000000000000600052602260045260246000fd5b6000600282049050600182168061259e57607f821691505b6020821081036125b1576125b0612557565b5b50919050565b60006060820190506125cc600083018661204f565b6125d9602083018561204f565b6125e660408301846120e5565b949350505050565b6000815190506125fd81612387565b92915050565b60006020828403121561261957612618611e43565b5b6000612627848285016125ee565b91505092915050565b7f5061796d656e74206661696c6564000000000000000000000000000000000000600082015250565b6000612666600e83611f13565b915061267182612630565b602082019050919050565b6000602082019050818103600083015261269581612659565b9050919050565b7f4e487b7100000000000000000000000000000000000000000000000000000000600052601160045260246000fd5b60006126d682611fba565b91507fffffffffffffffffffffffffffffffffffffffffffffffffffffffffffffffff82036127085761270761269c565b5b600182019050919050565b600081905092915050565b60008190508160005260206000209050919050565b6000815461274081612586565b61274a8186612713565b94506001821660008114612765576001811461277a576127ad565b60ff19831686528115158202860193506127ad565b6127838561271e565b60005b838110156127a557815481890152600182019150602081019050612786565b838801955050505b50505092915050565b7f2f00000000000000000000000000000000000000000000000000000000000000600082015250565b60006127ec600183612713565b91506127f7826127b6565b600182019050919050565b600061280d82611f08565b6128178185612713565b9350612827818560208601611f24565b80840191505092915050565b600061283f8285612733565b915061284a826127df565b91506128568284612802565b91508190509392505050565b6000606082019050612877600083018661204f565b61288460208301856120e5565b612891604083018461204f565b949350505050565b60006020601f8301049050919050565b600082821b905092915050565b6000600883026128e67fffffffffffffffffffffffffffffffffffffffffffffffffffffffffffffffff826128a9565b6128f086836128a9565b95508019841693508086168417925050509392505050565b600061292361291e61291984611fba565b612162565b611fba565b9050919050565b6000819050919050565b61293d83612908565b6129516129498261292a565b8484546128b6565b825550505050565b600090565b612966612959565b612971818484612934565b505050565b5b818110156129955761298a60008261295e565b600181019050612977565b5050565b601f8211156129da576129ab8161271e565b6129b484612899565b810160208510156129c3578190505b6129d76129cf85612899565b830182612976565b50505b505050565b600082821c905092915050565b60006129fd600019846008026129df565b1980831691505092915050565b6000612a1683836129ec565b9150826002028217905092915050565b612a2f82611f08565b67ffffffffffffffff811115612a4857612a476121e6565b5b612a528254612586565b612a5d828285612999565b600060209050601f831160018114612a905760008415612a7e578287015190505b612a888582612a0a565b865550612af0565b601f198416612a9e8661271e565b60005b82811015612ac657848901518255600182019150602085019450602081019050612aa1565b86831015612ae35784890151612adf601f8916826129ec565b8355505b6001600288020188555050505b505050505050565b6000612b048285612802565b9150612b108284612802565b91508190509392505050565b7f4e487b7100000000000000000000000000000000000000000000000000000000600052601260045260246000fd5b6000612b5682611fba565b9150612b6183611fba565b925082612b7157612b70612b1c565b5b828204905092915050565b6000612b8782611fba565b9150612b9283611fba565b925082612ba257612ba1612b1c565b5b828206905092915050565b6000612bb882611fba565b9150612bc383611fba565b9250828201905080821115612bdb57612bda61269c565b5b92915050565b6000612bec82611fba565b915060008203612bff57612bfe61269c565b5b600182039050919050565b7f4e487b7100000000000000000000000000000000000000000000000000000000600052603260045260246000fd5b600081519050919050565b600082825260208201905092915050565b6000612c6082612c39565b612c6a8185612c44565b9350612c7a818560208601611f24565b612c8381611f4e565b840191505092915050565b6000608082019050612ca3600083018761204f565b612cb0602083018661204f565b612cbd60408301856120e5565b8181036060830152612ccf8184612c55565b905095945050505050565b600081519050612ce981611e79565b92915050565b600060208284031215612d0557612d04611e43565b5b6000612d1384828501612cda565b91505092915050565b6000604082019050612d31600083018561204f565b612d3e60208301846120e5565b939250505056fea264697066735822122079b0ec7f0ff5f7200f93387b3bc27bd0c7c686c96d0fb802343f8e289393c98164736f6c634300081c0033",
    "linkReferences": {},
    "deployedLinkReferences": {}
}