{
  "_format": "hh-sol-artifact-1",
  "contractName": "YODA",
  "sourceName": "contracts/Yoda.sol",
  "abi": [
    {
      "inputs": [
        {
          "internalType": "string",
          "name": "_name",
          "type": "string"
        },
        {
          "internalType": "string",
          "name": "_symbol",
          "type": "string"
        },
        {
          "internalType": "uint256",
          "name": "_initialSupply",
          "type": "uint256"
        }
      ],
      "stateMutability": "nonpayable",
      "type": "constructor"
    },
    {
      "anonymous": false,
      "inputs": [
        {
          "indexed": true,
          "internalType": "address",
          "name": "owner",
          "type": "address"
        },
        {
          "indexed": true,
          "internalType": "address",
          "name": "spender",
          "type": "address"
        },
        {
          "indexed": false,
          "internalType": "uint256",
          "name": "value",
          "type": "uint256"
        }
      ],
      "name": "Approval",
      "type": "event"
    },
    {
      "anonymous": false,
      "inputs": [
        {
          "indexed": true,
          "internalType": "address",
          "name": "from",
          "type": "address"
        },
        {
          "indexed": true,
          "internalType": "address",
          "name": "to",
          "type": "address"
        },
        {
          "indexed": false,
          "internalType": "uint256",
          "name": "value",
          "type": "uint256"
        }
      ],
      "name": "Transfer",
      "type": "event"
    },
    {
      "inputs": [
        {
          "internalType": "address",
          "name": "",
          "type": "address"
        },
        {
          "internalType": "address",
          "name": "",
          "type": "address"
        }
      ],
      "name": "allowance",
      "outputs": [
        {
          "internalType": "uint256",
          "name": "",
          "type": "uint256"
        }
      ],
      "stateMutability": "view",
      "type": "function"
    },
    {
      "inputs": [
        {
          "internalType": "address",
          "name": "_spender",
          "type": "address"
        },
        {
          "internalType": "uint256",
          "name": "_value",
          "type": "uint256"
        }
      ],
      "name": "approve",
      "outputs": [
        {
          "internalType": "bool",
          "name": "success",
          "type": "bool"
        }
      ],
      "stateMutability": "nonpayable",
      "type": "function"
    },
    {
      "inputs": [
        {
          "internalType": "address",
          "name": "_address",
          "type": "address"
        }
      ],
      "name": "authorizeFirstTransfer",
      "outputs": [],
      "stateMutability": "nonpayable",
      "type": "function"
    },
    {
      "inputs": [
        {
          "internalType": "address",
          "name": "",
          "type": "address"
        }
      ],
      "name": "authorizedFirstTransfer",
      "outputs": [
        {
          "internalType": "bool",
          "name": "",
          "type": "bool"
        }
      ],
      "stateMutability": "view",
      "type": "function"
    },
    {
      "inputs": [
        {
          "internalType": "address",
          "name": "",
          "type": "address"
        }
      ],
      "name": "balanceOf",
      "outputs": [
        {
          "internalType": "uint256",
          "name": "",
          "type": "uint256"
        }
      ],
      "stateMutability": "view",
      "type": "function"
    },
    {
      "inputs": [],
      "name": "decimals",
      "outputs": [
        {
          "internalType": "uint8",
          "name": "",
          "type": "uint8"
        }
      ],
      "stateMutability": "view",
      "type": "function"
    },
    {
      "inputs": [],
      "name": "name",
      "outputs": [
        {
          "internalType": "string",
          "name": "",
          "type": "string"
        }
      ],
      "stateMutability": "view",
      "type": "function"
    },
    {
      "inputs": [],
      "name": "owner",
      "outputs": [
        {
          "internalType": "address",
          "name": "",
          "type": "address"
        }
      ],
      "stateMutability": "view",
      "type": "function"
    },
    {
      "inputs": [],
      "name": "sendMeFunds",
      "outputs": [
        {
          "internalType": "bool",
          "name": "success",
          "type": "bool"
        }
      ],
      "stateMutability": "nonpayable",
      "type": "function"
    },
    {
      "inputs": [],
      "name": "symbol",
      "outputs": [
        {
          "internalType": "string",
          "name": "",
          "type": "string"
        }
      ],
      "stateMutability": "view",
      "type": "function"
    },
    {
      "inputs": [],
      "name": "totalSupply",
      "outputs": [
        {
          "internalType": "uint256",
          "name": "",
          "type": "uint256"
        }
      ],
      "stateMutability": "view",
      "type": "function"
    },
    {
      "inputs": [
        {
          "internalType": "address",
          "name": "_to",
          "type": "address"
        },
        {
          "internalType": "uint256",
          "name": "_value",
          "type": "uint256"
        }
      ],
      "name": "transfer",
      "outputs": [
        {
          "internalType": "bool",
          "name": "success",
          "type": "bool"
        }
      ],
      "stateMutability": "nonpayable",
      "type": "function"
    },
    {
      "inputs": [
        {
          "internalType": "address",
          "name": "_from",
          "type": "address"
        },
        {
          "internalType": "address",
          "name": "_to",
          "type": "address"
        },
        {
          "internalType": "uint256",
          "name": "_value",
          "type": "uint256"
        }
      ],
      "name": "transferFrom",
      "outputs": [
        {
          "internalType": "bool",
          "name": "success",
          "type": "bool"
        }
      ],
      "stateMutability": "nonpayable",
      "type": "function"
    }
  ],
  "bytecode": "0x608060405234801561001057600080fd5b50604051611c25380380611c25833981810160405281019061003291906102ba565b8260009081610041919061055c565b508160019081610051919061055c565b5060028060006101000a81548160ff021916908360ff16021790555060648161007a919061065d565b60038190555033600460006101000a81548173ffffffffffffffffffffffffffffffffffffffff021916908373ffffffffffffffffffffffffffffffffffffffff160217905550600354600560003373ffffffffffffffffffffffffffffffffffffffff1673ffffffffffffffffffffffffffffffffffffffff1681526020019081526020016000208190555050505061069f565b6000604051905090565b600080fd5b600080fd5b600080fd5b600080fd5b6000601f19601f8301169050919050565b7f4e487b7100000000000000000000000000000000000000000000000000000000600052604160045260246000fd5b6101768261012d565b810181811067ffffffffffffffff821117156101955761019461013e565b5b80604052505050565b60006101a861010f565b90506101b4828261016d565b919050565b600067ffffffffffffffff8211156101d4576101d361013e565b5b6101dd8261012d565b9050602081019050919050565b60005b838110156102085780820151818401526020810190506101ed565b60008484015250505050565b6000610227610222846101b9565b61019e565b90508281526020810184848401111561024357610242610128565b5b61024e8482856101ea565b509392505050565b600082601f83011261026b5761026a610123565b5b815161027b848260208601610214565b91505092915050565b6000819050919050565b61029781610284565b81146102a257600080fd5b50565b6000815190506102b48161028e565b92915050565b6000806000606084860312156102d3576102d2610119565b5b600084015167ffffffffffffffff8111156102f1576102f061011e565b5b6102fd86828701610256565b935050602084015167ffffffffffffffff81111561031e5761031d61011e565b5b61032a86828701610256565b925050604061033b868287016102a5565b9150509250925092565b600081519050919050565b7f4e487b7100000000000000000000000000000000000000000000000000000000600052602260045260246000fd5b6000600282049050600182168061039757607f821691505b6020821081036103aa576103a9610350565b5b50919050565b60008190508160005260206000209050919050565b60006020601f8301049050919050565b600082821b905092915050565b6000600883026104127fffffffffffffffffffffffffffffffffffffffffffffffffffffffffffffffff826103d5565b61041c86836103d5565b95508019841693508086168417925050509392505050565b6000819050919050565b600061045961045461044f84610284565b610434565b610284565b9050919050565b6000819050919050565b6104738361043e565b61048761047f82610460565b8484546103e2565b825550505050565b600090565b61049c61048f565b6104a781848461046a565b505050565b5b818110156104cb576104c0600082610494565b6001810190506104ad565b5050565b601f821115610510576104e1816103b0565b6104ea846103c5565b810160208510156104f9578190505b61050d610505856103c5565b8301826104ac565b50505b505050565b600082821c905092915050565b600061053360001984600802610515565b1980831691505092915050565b600061054c8383610522565b9150826002028217905092915050565b61056582610345565b67ffffffffffffffff81111561057e5761057d61013e565b5b610588825461037f565b6105938282856104cf565b600060209050601f8311600181146105c657600084156105b4578287015190505b6105be8582610540565b865550610626565b601f1984166105d4866103b0565b60005b828110156105fc578489015182556001820191506020850194506020810190506105d7565b868310156106195784890151610615601f891682610522565b8355505b6001600288020188555050505b505050505050565b7f4e487b7100000000000000000000000000000000000000000000000000000000600052601160045260246000fd5b600061066882610284565b915061067383610284565b925082820261068181610284565b915082820484148315176106985761069761062e565b5b5092915050565b611577806106ae6000396000f3fe608060405234801561001057600080fd5b50600436106100cf5760003560e01c806370a082311161008c578063a9059cbb11610066578063a9059cbb1461022a578063b7b91cae1461025a578063dd62ed3e14610278578063f8518f8f146102a8576100cf565b806370a08231146101be5780638da5cb5b146101ee57806395d89b411461020c576100cf565b806306fdde03146100d4578063095ea7b3146100f257806318160ddd1461012257806323b872dd14610140578063313ce567146101705780635e8e72f31461018e575b600080fd5b6100dc6102c4565b6040516100e99190610f2c565b60405180910390f35b61010c60048036038101906101079190610fe7565b610352565b6040516101199190611042565b60405180910390f35b61012a6104b2565b604051610137919061106c565b60405180910390f35b61015a60048036038101906101559190611087565b6104b8565b6040516101679190611042565b60405180910390f35b610178610819565b60405161018591906110f6565b60405180910390f35b6101a860048036038101906101a39190611111565b61082c565b6040516101b59190611042565b60405180910390f35b6101d860048036038101906101d39190611111565b61084c565b6040516101e5919061106c565b60405180910390f35b6101f6610864565b604051610203919061114d565b60405180910390f35b61021461088a565b6040516102219190610f2c565b60405180910390f35b610244600480360381019061023f9190610fe7565b610918565b6040516102519190611042565b60405180910390f35b610262610b26565b60405161026f9190611042565b60405180910390f35b610292600480360381019061028d9190611168565b610d8c565b60405161029f919061106c565b60405180910390f35b6102c260048036038101906102bd9190611111565b610db1565b005b600080546102d1906111d7565b80601f01602080910402602001604051908101604052809291908181526020018280546102fd906111d7565b801561034a5780601f1061031f5761010080835404028352916020019161034a565b820191906000526020600020905b81548152906001019060200180831161032d57829003601f168201915b505050505081565b60008073ffffffffffffffffffffffffffffffffffffffff168373ffffffffffffffffffffffffffffffffffffffff16036103c2576040517f08c379a00000000000000000000000000000000000000000000000000000000081526004016103b990611254565b60405180910390fd5b81600660003373ffffffffffffffffffffffffffffffffffffffff1673ffffffffffffffffffffffffffffffffffffffff16815260200190815260200160002060008573ffffffffffffffffffffffffffffffffffffffff1673ffffffffffffffffffffffffffffffffffffffff168152602001908152602001600020819055508273ffffffffffffffffffffffffffffffffffffffff163373ffffffffffffffffffffffffffffffffffffffff167f8c5be1e5ebec7d5bd14f71427d1e84f3dd0314c0f7b2291e5b200ac8c7c3b925846040516104a0919061106c565b60405180910390a36001905092915050565b60035481565b600081600560008673ffffffffffffffffffffffffffffffffffffffff1673ffffffffffffffffffffffffffffffffffffffff16815260200190815260200160002054101561053c576040517f08c379a0000000000000000000000000000000000000000000000000000000008152600401610533906112c0565b60405180910390fd5b600073ffffffffffffffffffffffffffffffffffffffff168373ffffffffffffffffffffffffffffffffffffffff16036105ab576040517f08c379a00000000000000000000000000000000000000000000000000000000081526004016105a290611254565b60405180910390fd5b81600660008673ffffffffffffffffffffffffffffffffffffffff1673ffffffffffffffffffffffffffffffffffffffff16815260200190815260200160002060003373ffffffffffffffffffffffffffffffffffffffff1673ffffffffffffffffffffffffffffffffffffffff16815260200190815260200160002054101561066a576040517f08c379a00000000000000000000000000000000000000000000000000000000081526004016106619061132c565b60405180910390fd5b81600560008673ffffffffffffffffffffffffffffffffffffffff1673ffffffffffffffffffffffffffffffffffffffff16815260200190815260200160002060008282546106b9919061137b565b9250508190555081600560008573ffffffffffffffffffffffffffffffffffffffff1673ffffffffffffffffffffffffffffffffffffffff168152602001908152602001600020600082825461070f91906113af565b9250508190555081600660008673ffffffffffffffffffffffffffffffffffffffff1673ffffffffffffffffffffffffffffffffffffffff16815260200190815260200160002060003373ffffffffffffffffffffffffffffffffffffffff1673ffffffffffffffffffffffffffffffffffffffff16815260200190815260200160002060008282546107a2919061137b565b925050819055508273ffffffffffffffffffffffffffffffffffffffff168473ffffffffffffffffffffffffffffffffffffffff167fddf252ad1be2c89b69c2b068fc378daa952ba7f163c4a11628f55a4df523b3ef84604051610806919061106c565b60405180910390a3600190509392505050565b600260009054906101000a900460ff1681565b60076020528060005260406000206000915054906101000a900460ff1681565b60056020528060005260406000206000915090505481565b600460009054906101000a900473ffffffffffffffffffffffffffffffffffffffff1681565b60018054610897906111d7565b80601f01602080910402602001604051908101604052809291908181526020018280546108c3906111d7565b80156109105780601f106108e557610100808354040283529160200191610910565b820191906000526020600020905b8154815290600101906020018083116108f357829003601f168201915b505050505081565b600081600560003373ffffffffffffffffffffffffffffffffffffffff1673ffffffffffffffffffffffffffffffffffffffff16815260200190815260200160002054101561099c576040517f08c379a0000000000000000000000000000000000000000000000000000000008152600401610993906112c0565b60405180910390fd5b600073ffffffffffffffffffffffffffffffffffffffff168373ffffffffffffffffffffffffffffffffffffffff1603610a0b576040517f08c379a0000000000000000000000000000000000000000000000000000000008152600401610a0290611254565b60405180910390fd5b81600560003373ffffffffffffffffffffffffffffffffffffffff1673ffffffffffffffffffffffffffffffffffffffff1681526020019081526020016000206000828254610a5a919061137b565b9250508190555081600560008573ffffffffffffffffffffffffffffffffffffffff1673ffffffffffffffffffffffffffffffffffffffff1681526020019081526020016000206000828254610ab091906113af565b925050819055508273ffffffffffffffffffffffffffffffffffffffff163373ffffffffffffffffffffffffffffffffffffffff167fddf252ad1be2c89b69c2b068fc378daa952ba7f163c4a11628f55a4df523b3ef84604051610b14919061106c565b60405180910390a36001905092915050565b6000620f424060056000600460009054906101000a900473ffffffffffffffffffffffffffffffffffffffff1673ffffffffffffffffffffffffffffffffffffffff1673ffffffffffffffffffffffffffffffffffffffff168152602001908152602001600020541015610bcf576040517f08c379a0000000000000000000000000000000000000000000000000000000008152600401610bc69061142f565b60405180910390fd5b620f424060056000600460009054906101000a900473ffffffffffffffffffffffffffffffffffffffff1673ffffffffffffffffffffffffffffffffffffffff1673ffffffffffffffffffffffffffffffffffffffff1681526020019081526020016000206000828254610c43919061137b565b92505081905550620f4240600560003373ffffffffffffffffffffffffffffffffffffffff1673ffffffffffffffffffffffffffffffffffffffff1681526020019081526020016000206000828254610c9c91906113af565b925050819055506000600760003373ffffffffffffffffffffffffffffffffffffffff1673ffffffffffffffffffffffffffffffffffffffff16815260200190815260200160002060006101000a81548160ff0219169083151502179055503373ffffffffffffffffffffffffffffffffffffffff16600460009054906101000a900473ffffffffffffffffffffffffffffffffffffffff1673ffffffffffffffffffffffffffffffffffffffff167fddf252ad1be2c89b69c2b068fc378daa952ba7f163c4a11628f55a4df523b3ef620f4240604051610d7d9190611494565b60405180910390a36001905090565b6006602052816000526040600020602052806000526040600020600091509150505481565b600460009054906101000a900473ffffffffffffffffffffffffffffffffffffffff1673ffffffffffffffffffffffffffffffffffffffff163373ffffffffffffffffffffffffffffffffffffffff1614610e41576040517f08c379a0000000000000000000000000000000000000000000000000000000008152600401610e3890611521565b60405180910390fd5b6001600760008373ffffffffffffffffffffffffffffffffffffffff1673ffffffffffffffffffffffffffffffffffffffff16815260200190815260200160002060006101000a81548160ff02191690831515021790555050565b600081519050919050565b600082825260208201905092915050565b60005b83811015610ed6578082015181840152602081019050610ebb565b60008484015250505050565b6000601f19601f8301169050919050565b6000610efe82610e9c565b610f088185610ea7565b9350610f18818560208601610eb8565b610f2181610ee2565b840191505092915050565b60006020820190508181036000830152610f468184610ef3565b905092915050565b600080fd5b600073ffffffffffffffffffffffffffffffffffffffff82169050919050565b6000610f7e82610f53565b9050919050565b610f8e81610f73565b8114610f9957600080fd5b50565b600081359050610fab81610f85565b92915050565b6000819050919050565b610fc481610fb1565b8114610fcf57600080fd5b50565b600081359050610fe181610fbb565b92915050565b60008060408385031215610ffe57610ffd610f4e565b5b600061100c85828601610f9c565b925050602061101d85828601610fd2565b9150509250929050565b60008115159050919050565b61103c81611027565b82525050565b60006020820190506110576000830184611033565b92915050565b61106681610fb1565b82525050565b6000602082019050611081600083018461105d565b92915050565b6000806000606084860312156110a05761109f610f4e565b5b60006110ae86828701610f9c565b93505060206110bf86828701610f9c565b92505060406110d086828701610fd2565b9150509250925092565b600060ff82169050919050565b6110f0816110da565b82525050565b600060208201905061110b60008301846110e7565b92915050565b60006020828403121561112757611126610f4e565b5b600061113584828501610f9c565b91505092915050565b61114781610f73565b82525050565b6000602082019050611162600083018461113e565b92915050565b6000806040838503121561117f5761117e610f4e565b5b600061118d85828601610f9c565b925050602061119e85828601610f9c565b9150509250929050565b7f4e487b7100000000000000000000000000000000000000000000000000000000600052602260045260246000fd5b600060028204905060018216806111ef57607f821691505b602082108103611202576112016111a8565b5b50919050565b7f496e76616c696420616464726573730000000000000000000000000000000000600082015250565b600061123e600f83610ea7565b915061124982611208565b602082019050919050565b6000602082019050818103600083015261126d81611231565b9050919050565b7f496e73756666696369656e742062616c616e6365000000000000000000000000600082015250565b60006112aa601483610ea7565b91506112b582611274565b602082019050919050565b600060208201905081810360008301526112d98161129d565b9050919050565b7f416c6c6f77616e63652065786365656465640000000000000000000000000000600082015250565b6000611316601283610ea7565b9150611321826112e0565b602082019050919050565b6000602082019050818103600083015261134581611309565b9050919050565b7f4e487b7100000000000000000000000000000000000000000000000000000000600052601160045260246000fd5b600061138682610fb1565b915061139183610fb1565b92508282039050818111156113a9576113a861134c565b5b92915050565b60006113ba82610fb1565b91506113c583610fb1565b92508282019050808211156113dd576113dc61134c565b5b92915050565b7f496e73756666696369656e74206f776e65722062616c616e6365000000000000600082015250565b6000611419601a83610ea7565b9150611424826113e3565b602082019050919050565b600060208201905081810360008301526114488161140c565b9050919050565b6000819050919050565b6000819050919050565b600061147e6114796114748461144f565b611459565b610fb1565b9050919050565b61148e81611463565b82525050565b60006020820190506114a96000830184611485565b92915050565b7f4f6e6c79206f776e65722063616e20617574686f72697a65206669727374207460008201527f72616e7366657200000000000000000000000000000000000000000000000000602082015250565b600061150b602783610ea7565b9150611516826114af565b604082019050919050565b6000602082019050818103600083015261153a816114fe565b905091905056fea26469706673582212203f7a5e0717f436ed26ea45947d09dcaece404b316c38c6fa759fa9f42e7c4f0964736f6c634300081c0033",
  "linkReferences": {},
  "deployedLinkReferences": {}
}